{
  "contractName": "LibString",
  "abi": [
    {
      "constant": true,
      "inputs": [
        {
          "name": "randomNumber",
          "type": "uint8"
        },
        {
          "name": "salt",
          "type": "string"
        }
      ],
      "name": "saltedHash",
      "outputs": [
        {
          "name": "",
          "type": "bytes32"
        }
      ],
      "payable": false,
      "stateMutability": "pure",
      "type": "function"
    }
  ],
  "bytecode": "0x6103ed610030600b82828239805160001a6073146000811461002057610022565bfe5b5030600052607381538281f3fe7300000000000000000000000000000000000000003014608060405260043610610052576000357c0100000000000000000000000000000000000000000000000000000000900480636474c5b814610057575b600080fd5b61011d6004803603604081101561006d57600080fd5b81019080803560ff1690602001909291908035906020019064010000000081111561009757600080fd5b8201836020820111156100a957600080fd5b803590602001918460018302840111640100000000831117156100cb57600080fd5b91908080601f016020809104026020016040519081016040528093929190818152602001838380828437600081840152601f19601f820116905080830192505050505050509192919290505050610133565b6040518082815260200191505060405180910390f35b6000606060016040519080825280601f01601f19166020018201604052801561016b5781602001600182028038833980820191505090505b509050837f0100000000000000000000000000000000000000000000000000000000000000028160008151811015156101a057fe5b9060200101907effffffffffffffffffffffffffffffffffffffffffffffffffffffffffffff1916908160001a9053506101da81846101ea565b8051906020012091505092915050565b6060808390506060839050606081518351016040519080825280601f01601f19166020018201604052801561022e5781602001600182028038833980820191505090505b5090506060819050600080905060008090505b85518110156102f657858181518110151561025857fe5b9060200101517f010000000000000000000000000000000000000000000000000000000000000090047f01000000000000000000000000000000000000000000000000000000000000000283838151811015156102b157fe5b9060200101907effffffffffffffffffffffffffffffffffffffffffffffffffffffffffffff1916908160001a90535081806001019250508080600101915050610241565b5060008090505b84518110156103b257848181518110151561031457fe5b9060200101517f010000000000000000000000000000000000000000000000000000000000000090047f010000000000000000000000000000000000000000000000000000000000000002838381518110151561036d57fe5b9060200101907effffffffffffffffffffffffffffffffffffffffffffffffffffffffffffff1916908160001a905350818060010192505080806001019150506102fd565b5081955050505050509291505056fea165627a7a723058203acd368cedc2fba67b88d82f42943acecb4a36e2770823b75853748845f384c00029",
  "source": "// contracts/LibString.sol\r\npragma solidity ^0.5.0;\r\n\r\nlibrary LibString {\r\n    function saltedHash(uint8 randomNumber, string memory salt) public pure returns (bytes32) {\r\n        bytes memory bNum = new bytes(1);\r\n        bNum[0] = byte(randomNumber);\r\n\r\n        return keccak256(bytes(concat(string(bNum), salt)));\r\n    }\r\n    \r\n    function concat(string memory first, string memory second) internal pure returns (string memory){\r\n        bytes memory bFirst = bytes(first);\r\n        bytes memory bSecond = bytes(second);\r\n        string memory memStr = new string(bFirst.length + bSecond.length);\r\n        bytes memory result = bytes(memStr);\r\n        uint k = 0;\r\n        for (uint i = 0; i < bFirst.length; i++) {\r\n            result[k] = bFirst[i];\r\n            k++;\r\n        }\r\n        for (uint i = 0; i < bSecond.length; i++) {\r\n            result[k] = bSecond[i];\r\n            k++;\r\n        }\r\n        return string(result);\r\n    }\r\n}\r\n",
  "sourcePath": "C:\\xampp\\htdocs\\BLOCKCHAIN\\tic-tac-toe\\contracts\\LibString.sol",
  "compiler": {
    "name": "solc",
    "version": "0.5.1+commit.c8a2cb62.Emscripten.clang"
  },
  "schemaVersion": "3.0.16",
  "updatedAt": "2019-11-08T20:10:35.395Z",
  "devdoc": {
    "methods": {}
  },
  "userdoc": {
    "methods": {}
  }
}