{
  "contractName": "TicTacToe",
  "abi": [
    {
      "constant": true,
      "inputs": [],
      "name": "timeout",
      "outputs": [
        {
          "name": "",
          "type": "uint16"
        }
      ],
      "payable": false,
      "stateMutability": "view",
      "type": "function"
    },
    {
      "constant": true,
      "inputs": [],
      "name": "owner",
      "outputs": [
        {
          "name": "",
          "type": "address"
        }
      ],
      "payable": false,
      "stateMutability": "view",
      "type": "function"
    },
    {
      "inputs": [
        {
          "name": "givenTimeout",
          "type": "uint16"
        }
      ],
      "payable": false,
      "stateMutability": "nonpayable",
      "type": "constructor"
    },
    {
      "payable": true,
      "stateMutability": "payable",
      "type": "fallback"
    },
    {
      "anonymous": false,
      "inputs": [
        {
          "indexed": true,
          "name": "gameIdx",
          "type": "uint32"
        }
      ],
      "name": "GameCreated",
      "type": "event"
    },
    {
      "anonymous": false,
      "inputs": [
        {
          "indexed": true,
          "name": "gameIdx",
          "type": "uint32"
        },
        {
          "indexed": true,
          "name": "opponent",
          "type": "address"
        }
      ],
      "name": "GameAccepted",
      "type": "event"
    },
    {
      "anonymous": false,
      "inputs": [
        {
          "indexed": true,
          "name": "gameIdx",
          "type": "uint32"
        },
        {
          "indexed": true,
          "name": "opponent",
          "type": "address"
        }
      ],
      "name": "GameStarted",
      "type": "event"
    },
    {
      "anonymous": false,
      "inputs": [
        {
          "indexed": true,
          "name": "gameIdx",
          "type": "uint32"
        },
        {
          "indexed": true,
          "name": "opponent",
          "type": "address"
        }
      ],
      "name": "PositionMarked",
      "type": "event"
    },
    {
      "anonymous": false,
      "inputs": [
        {
          "indexed": true,
          "name": "gameIdx",
          "type": "uint32"
        },
        {
          "indexed": true,
          "name": "opponent",
          "type": "address"
        }
      ],
      "name": "GameEnded",
      "type": "event"
    },
    {
      "constant": false,
      "inputs": [],
      "name": "kill",
      "outputs": [],
      "payable": false,
      "stateMutability": "nonpayable",
      "type": "function"
    },
    {
      "constant": true,
      "inputs": [],
      "name": "getOpenGames",
      "outputs": [
        {
          "name": "",
          "type": "uint32[]"
        }
      ],
      "payable": false,
      "stateMutability": "view",
      "type": "function"
    },
    {
      "constant": true,
      "inputs": [
        {
          "name": "gameIdx",
          "type": "uint32"
        }
      ],
      "name": "getGameInfo",
      "outputs": [
        {
          "name": "cells",
          "type": "uint8[9]"
        },
        {
          "name": "status",
          "type": "uint8"
        },
        {
          "name": "amount",
          "type": "uint256"
        },
        {
          "name": "nick1",
          "type": "string"
        },
        {
          "name": "nick2",
          "type": "string"
        }
      ],
      "payable": false,
      "stateMutability": "view",
      "type": "function"
    },
    {
      "constant": true,
      "inputs": [
        {
          "name": "gameIdx",
          "type": "uint32"
        }
      ],
      "name": "getGameTimestamp",
      "outputs": [
        {
          "name": "lastTransaction",
          "type": "uint256"
        }
      ],
      "payable": false,
      "stateMutability": "view",
      "type": "function"
    },
    {
      "constant": true,
      "inputs": [
        {
          "name": "gameIdx",
          "type": "uint32"
        }
      ],
      "name": "getGamePlayers",
      "outputs": [
        {
          "name": "player1",
          "type": "address"
        },
        {
          "name": "player2",
          "type": "address"
        }
      ],
      "payable": false,
      "stateMutability": "view",
      "type": "function"
    },
    {
      "constant": true,
      "inputs": [
        {
          "name": "gameIdx",
          "type": "uint32"
        }
      ],
      "name": "getGameWithdrawals",
      "outputs": [
        {
          "name": "player1",
          "type": "bool"
        },
        {
          "name": "player2",
          "type": "bool"
        }
      ],
      "payable": false,
      "stateMutability": "view",
      "type": "function"
    },
    {
      "constant": false,
      "inputs": [
        {
          "name": "randomNumberHash",
          "type": "bytes32"
        },
        {
          "name": "nick",
          "type": "string"
        }
      ],
      "name": "createGame",
      "outputs": [
        {
          "name": "gameIdx",
          "type": "uint32"
        }
      ],
      "payable": true,
      "stateMutability": "payable",
      "type": "function"
    },
    {
      "constant": false,
      "inputs": [
        {
          "name": "gameIdx",
          "type": "uint32"
        },
        {
          "name": "randomNumber",
          "type": "uint8"
        },
        {
          "name": "nick",
          "type": "string"
        }
      ],
      "name": "acceptGame",
      "outputs": [],
      "payable": true,
      "stateMutability": "payable",
      "type": "function"
    },
    {
      "constant": false,
      "inputs": [
        {
          "name": "gameIdx",
          "type": "uint32"
        },
        {
          "name": "revealedRandomNumber",
          "type": "uint8"
        },
        {
          "name": "revealedSalt",
          "type": "string"
        }
      ],
      "name": "confirmGame",
      "outputs": [],
      "payable": false,
      "stateMutability": "nonpayable",
      "type": "function"
    },
    {
      "constant": false,
      "inputs": [
        {
          "name": "gameIdx",
          "type": "uint32"
        },
        {
          "name": "cell",
          "type": "uint8"
        }
      ],
      "name": "markPosition",
      "outputs": [],
      "payable": false,
      "stateMutability": "nonpayable",
      "type": "function"
    },
    {
      "constant": false,
      "inputs": [
        {
          "name": "gameIdx",
          "type": "uint32"
        }
      ],
      "name": "withdraw",
      "outputs": [],
      "payable": false,
      "stateMutability": "nonpayable",
      "type": "function"
    },
    {
      "constant": true,
      "inputs": [
        {
          "name": "randomNumber",
          "type": "uint8"
        },
        {
          "name": "salt",
          "type": "string"
        }
      ],
      "name": "saltedHash",
      "outputs": [
        {
          "name": "",
          "type": "bytes32"
        }
      ],
      "payable": false,
      "stateMutability": "pure",
      "type": "function"
    }
  ],
  "bytecode": "0x60806040523480156200001157600080fd5b5060405160208062004cb5833981018060405260208110156200003357600080fd5b810190808051906020019092919050505060008161ffff16141515620000765780600360046101000a81548161ffff021916908361ffff16021790555062000096565b610258600360046101000a81548161ffff021916908361ffff1602179055505b336000806101000a81548173ffffffffffffffffffffffffffffffffffffffff021916908373ffffffffffffffffffffffffffffffffffffffff16021790555050614bce80620000e76000396000f3fe6080604052600436106100ca576000357c0100000000000000000000000000000000000000000000000000000000900480630cc99ca21461013857806322719305146101ec578063351638b0146102d157806341c0e1b51461032657806343b95d7b1461033d5780636474c5b81461042257806370dea79a1461050b578063848a23511461053e5780638da5cb5b146106a7578063a97d07b0146106fe578063aa9224cd146107d6578063b60d0e9b14610817578063d9a618ae14610865578063e75d7e3e146108c9575b6040517f08c379a000000000000000000000000000000000000000000000000000000000815260040180806020018281038252600f8152602001807f496e76616c696420416374696f6e2e000000000000000000000000000000000081525060200191505060405180910390fd5b34801561014457600080fd5b506101776004803603602081101561015b57600080fd5b81019080803563ffffffff169060200190929190505050610935565b604051808373ffffffffffffffffffffffffffffffffffffffff1673ffffffffffffffffffffffffffffffffffffffff1681526020018273ffffffffffffffffffffffffffffffffffffffff1673ffffffffffffffffffffffffffffffffffffffff1681526020019250505060405180910390f35b6102af6004803603604081101561020257600080fd5b81019080803590602001909291908035906020019064010000000081111561022957600080fd5b82018360208201111561023b57600080fd5b8035906020019184600183028401116401000000008311171561025d57600080fd5b91908080601f016020809104026020016040519081016040528093929190818152602001838380828437600081840152601f19601f8201169050808301925050505050505091929192905050506109e5565b604051808263ffffffff1663ffffffff16815260200191505060405180910390f35b3480156102dd57600080fd5b50610310600480360360208110156102f457600080fd5b81019080803563ffffffff169060200190929190505050610d6c565b6040518082815260200191505060405180910390f35b34801561033257600080fd5b5061033b610d98565b005b34801561034957600080fd5b506104206004803603606081101561036057600080fd5b81019080803563ffffffff169060200190929190803560ff1690602001909291908035906020019064010000000081111561039a57600080fd5b8201836020820111156103ac57600080fd5b803590602001918460018302840111640100000000831117156103ce57600080fd5b91908080601f016020809104026020016040519081016040528093929190818152602001838380828437600081840152601f19601f820116905080830192505050505050509192919290505050610ebc565b005b34801561042e57600080fd5b506104f56004803603604081101561044557600080fd5b81019080803560ff1690602001909291908035906020019064010000000081111561046f57600080fd5b82018360208201111561048157600080fd5b803590602001918460018302840111640100000000831117156104a357600080fd5b91908080601f016020809104026020016040519081016040528093929190818152602001838380828437600081840152601f19601f82011690508083019250505050505050919291929050505061158c565b6040518082815260200191505060405180910390f35b34801561051757600080fd5b506105206116af565b604051808261ffff1661ffff16815260200191505060405180910390f35b34801561054a57600080fd5b5061057d6004803603602081101561056157600080fd5b81019080803563ffffffff1690602001909291905050506116c3565b6040518086600960200280838360005b838110156105a857808201518184015260208101905061058d565b505050509050018560ff1660ff1681526020018481526020018060200180602001838103835285818151815260200191508051906020019080838360005b838110156106015780820151818401526020810190506105e6565b50505050905090810190601f16801561062e5780820380516001836020036101000a031916815260200191505b50838103825284818151815260200191508051906020019080838360005b8381101561066757808201518184015260208101905061064c565b50505050905090810190601f1680156106945780820380516001836020036101000a031916815260200191505b5097505050505050505060405180910390f35b3480156106b357600080fd5b506106bc611958565b604051808273ffffffffffffffffffffffffffffffffffffffff1673ffffffffffffffffffffffffffffffffffffffff16815260200191505060405180910390f35b6107d46004803603606081101561071457600080fd5b81019080803563ffffffff169060200190929190803560ff1690602001909291908035906020019064010000000081111561074e57600080fd5b82018360208201111561076057600080fd5b8035906020019184600183028401116401000000008311171561078257600080fd5b91908080601f016020809104026020016040519081016040528093929190818152602001838380828437600081840152601f19601f82011690508083019250505050505050919291929050505061197d565b005b3480156107e257600080fd5b50610815600480360360208110156107f957600080fd5b81019080803563ffffffff169060200190929190505050612030565b005b34801561082357600080fd5b506108636004803603604081101561083a57600080fd5b81019080803563ffffffff169060200190929190803560ff1690602001909291905050506138da565b005b34801561087157600080fd5b506108a46004803603602081101561088857600080fd5b81019080803563ffffffff169060200190929190505050614983565b6040518083151515158152602001821515151581526020019250505060405180910390f35b3480156108d557600080fd5b506108de614a1b565b6040518080602001828103825283818151815260200191508051906020019060200280838360005b83811015610921578082015181840152602081019050610906565b505050509050019250505060405180910390f35b600080600260008463ffffffff1663ffffffff168152602001908152602001600020600401600060028110151561096857fe5b0160009054906101000a900473ffffffffffffffffffffffffffffffffffffffff16600260008563ffffffff1663ffffffff16815260200190815260200160002060040160016002811015156109ba57fe5b0160009054906101000a900473ffffffffffffffffffffffffffffffffffffffff1691509150915091565b6000600360009054906101000a900463ffffffff1663ffffffff166001600360009054906101000a900463ffffffff160163ffffffff16111515610a91576040517f08c379a000000000000000000000000000000000000000000000000000000000815260040180806020018281038252601f8152602001807f4e6578742067616d6520696e646578206973206e6f74206c6174746573742e0081525060200191505060405180910390fd5b60018054905060026000600360009054906101000a900463ffffffff1663ffffffff1663ffffffff16815260200190815260200160002060000160006101000a81548163ffffffff021916908363ffffffff1602179055508260026000600360009054906101000a900463ffffffff1663ffffffff1663ffffffff168152602001908152602001600020600a01819055503460026000600360009054906101000a900463ffffffff1663ffffffff1663ffffffff168152602001908152602001600020600301819055508160026000600360009054906101000a900463ffffffff1663ffffffff1663ffffffff1681526020019081526020016000206006016000600281101515610b9e57fe5b019080519060200190610bb2929190614a9f565b503360026000600360009054906101000a900463ffffffff1663ffffffff1663ffffffff1681526020019081526020016000206004016000600281101515610bf657fe5b0160006101000a81548173ffffffffffffffffffffffffffffffffffffffff021916908373ffffffffffffffffffffffffffffffffffffffff1602179055504260026000600360009054906101000a900463ffffffff1663ffffffff1663ffffffff168152602001908152602001600020600801819055506001600360009054906101000a900463ffffffff16908060018154018082558091505090600182039060005260206000209060089182820401919006600402909192909190916101000a81548163ffffffff021916908363ffffffff16021790555050600360009054906101000a900463ffffffff169050600360009054906101000a900463ffffffff1663ffffffff167fe086303ca1b48642b0b5ba69da2571f5e80c0316d829fef02a512f986d2dd97d60405160405180910390a26003600081819054906101000a900463ffffffff168092919060010191906101000a81548163ffffffff021916908363ffffffff1602179055505092915050565b6000600260008363ffffffff1663ffffffff168152602001908152602001600020600801549050919050565b6000809054906101000a900473ffffffffffffffffffffffffffffffffffffffff1673ffffffffffffffffffffffffffffffffffffffff163373ffffffffffffffffffffffffffffffffffffffff16141515610e82576040517f08c379a00000000000000000000000000000000000000000000000000000000081526004018080602001828103825260258152602001807f4f6e6c7920746865206f776e65722063616e206b696c6c207468697320636f6e81526020017f747261637400000000000000000000000000000000000000000000000000000081525060400191505060405180910390fd5b6000809054906101000a900473ffffffffffffffffffffffffffffffffffffffff1673ffffffffffffffffffffffffffffffffffffffff16ff5b600360009054906101000a900463ffffffff1663ffffffff168363ffffffff16101515610f51576040517f08c379a000000000000000000000000000000000000000000000000000000000815260040180806020018281038252601d8152602001807f4e6578742067616d6520696e646578206973206e6f742076616c69642e00000081525060200191505060405180910390fd5b3373ffffffffffffffffffffffffffffffffffffffff16600260008563ffffffff1663ffffffff1681526020019081526020016000206004016000600281101515610f9857fe5b0160009054906101000a900473ffffffffffffffffffffffffffffffffffffffff1673ffffffffffffffffffffffffffffffffffffffff1614151561106b576040517f08c379a000000000000000000000000000000000000000000000000000000000815260040180806020018281038252602b8152602001807f506c61796572312077616c6c6574206d69736d6174636820776974682073656e81526020017f6465722077616c6c65742e00000000000000000000000000000000000000000081525060400191505060405180910390fd5b600073ffffffffffffffffffffffffffffffffffffffff16600260008563ffffffff1663ffffffff16815260200190815260200160002060040160016002811015156110b357fe5b0160009054906101000a900473ffffffffffffffffffffffffffffffffffffffff1673ffffffffffffffffffffffffffffffffffffffff1614151515611161576040517f08c379a000000000000000000000000000000000000000000000000000000000815260040180806020018281038252601a8152602001807f506c61796572322077616c6c657420697320696e76616c69642e00000000000081525060200191505060405180910390fd5b6000600260008563ffffffff1663ffffffff16815260200190815260200160002060020160009054906101000a900460ff1660ff1614151561120b576040517f08c379a00000000000000000000000000000000000000000000000000000000081526004018080602001828103825260188152602001807f47616d6520737461747573206973206e6f6e2d7a65726f2e000000000000000081525060200191505060405180910390fd5b6000611217838361158c565b9050600260008563ffffffff1663ffffffff168152602001908152602001600020600a01548114151561136b57600c600260008663ffffffff1663ffffffff16815260200190815260200160002060020160006101000a81548160ff021916908360ff1602179055503373ffffffffffffffffffffffffffffffffffffffff168463ffffffff167f429f8719638cba0a0c2c2f5abdaed73702d21228925bbda0ac0a575bbfed444b60405160405180910390a3600260008563ffffffff1663ffffffff16815260200190815260200160002060040160016002811015156112fa57fe5b0160009054906101000a900473ffffffffffffffffffffffffffffffffffffffff1673ffffffffffffffffffffffffffffffffffffffff168463ffffffff167f429f8719638cba0a0c2c2f5abdaed73702d21228925bbda0ac0a575bbfed444b60405160405180910390a350611587565b42600260008663ffffffff1663ffffffff1681526020019081526020016000206008018190555060006001600260008763ffffffff1663ffffffff168152602001908152602001600020600b0160009054906101000a900460ff1685181660ff1614156114ae576001600260008663ffffffff1663ffffffff16815260200190815260200160002060020160006101000a81548160ff021916908360ff160217905550600260008563ffffffff1663ffffffff168152602001908152602001600020600401600160028110151561143e57fe5b0160009054906101000a900473ffffffffffffffffffffffffffffffffffffffff1673ffffffffffffffffffffffffffffffffffffffff168463ffffffff167f6d8a1d2dfca1665cabe339d00b017fc53268dbd538c20c3cefc2ce4076ff928a60405160405180910390a3611585565b60028060008663ffffffff1663ffffffff16815260200190815260200160002060020160006101000a81548160ff021916908360ff160217905550600260008563ffffffff1663ffffffff168152602001908152602001600020600401600160028110151561151957fe5b0160009054906101000a900473ffffffffffffffffffffffffffffffffffffffff1673ffffffffffffffffffffffffffffffffffffffff168463ffffffff167f6d8a1d2dfca1665cabe339d00b017fc53268dbd538c20c3cefc2ce4076ff928a60405160405180910390a35b505b505050565b600073__LibString_____________________________636474c5b884846040518363ffffffff167c0100000000000000000000000000000000000000000000000000000000028152600401808360ff1660ff16815260200180602001828103825283818151815260200191508051906020019080838360005b83811015611621578082015181840152602081019050611606565b50505050905090810190601f16801561164e5780820380516001836020036101000a031916815260200191505b50935050505060206040518083038186803b15801561166c57600080fd5b505af4158015611680573d6000803e3d6000fd5b505050506040513d602081101561169657600080fd5b8101908080519060200190929190505050905092915050565b600360049054906101000a900461ffff1681565b6116cb614b1f565b600080606080600260008763ffffffff1663ffffffff168152602001908152602001600020600101600260008863ffffffff1663ffffffff16815260200190815260200160002060020160009054906101000a900460ff16600260008963ffffffff1663ffffffff16815260200190815260200160002060030154600260008a63ffffffff1663ffffffff168152602001908152602001600020600601600060028110151561177657fe5b01600260008b63ffffffff1663ffffffff16815260200190815260200160002060060160016002811015156117a757fe5b0184600980602002604051908101604052809291908260098015611806576020028201916000905b82829054906101000a900460ff1660ff16815260200190600101906020826000010492830192600103820291508084116117cf5790505b50505050509450818054600181600116156101000203166002900480601f0160208091040260200160405190810160405280929190818152602001828054600181600116156101000203166002900480156118a25780601f10611877576101008083540402835291602001916118a2565b820191906000526020600020905b81548152906001019060200180831161188557829003601f168201915b50505050509150808054600181600116156101000203166002900480601f01602080910402602001604051908101604052809291908181526020018280546001816001161561010002031660029004801561193e5780601f106119135761010080835404028352916020019161193e565b820191906000526020600020905b81548152906001019060200180831161192157829003601f168201915b505050505090509450945094509450945091939590929450565b6000809054906101000a900473ffffffffffffffffffffffffffffffffffffffff1681565b600360009054906101000a900463ffffffff1663ffffffff168363ffffffff16101515611a38576040517f08c379a00000000000000000000000000000000000000000000000000000000081526004018080602001828103825260238152602001807f47616d6520696e646578206973206e6f74206f6620636f727265637420636f7581526020017f6e742e000000000000000000000000000000000000000000000000000000000081525060400191505060405180910390fd5b600073ffffffffffffffffffffffffffffffffffffffff16600260008563ffffffff1663ffffffff1681526020019081526020016000206004016000600281101515611a8057fe5b0160009054906101000a900473ffffffffffffffffffffffffffffffffffffffff1673ffffffffffffffffffffffffffffffffffffffff1614151515611b2e576040517f08c379a000000000000000000000000000000000000000000000000000000000815260040180806020018281038252601d8152602001807f506c6179657273312077616c6c6574206973206e6f742076616c69642e00000081525060200191505060405180910390fd5b600260008463ffffffff1663ffffffff1681526020019081526020016000206003015434141515611bc7576040517f08c379a000000000000000000000000000000000000000000000000000000000815260040180806020018281038252601f8152602001807f506c617965722062657420616d6f756e74206973206e6f742076616c69642e0081525060200191505060405180910390fd5b600073ffffffffffffffffffffffffffffffffffffffff16600260008563ffffffff1663ffffffff1681526020019081526020016000206004016001600281101515611c0f57fe5b0160009054906101000a900473ffffffffffffffffffffffffffffffffffffffff1673ffffffffffffffffffffffffffffffffffffffff16141515611cbc576040517f08c379a000000000000000000000000000000000000000000000000000000000815260040180806020018281038252601d8152602001807f506c61796572322077616c6c657420616c72656164792065786973742e00000081525060200191505060405180910390fd5b6000600260008563ffffffff1663ffffffff16815260200190815260200160002060020160009054906101000a900460ff1660ff16141515611d66576040517f08c379a00000000000000000000000000000000000000000000000000000000081526004018080602001828103825260188152602001807f47616d6520737461747573206973206e6f6e2d7a65726f2e000000000000000081525060200191505060405180910390fd5b81600260008563ffffffff1663ffffffff168152602001908152602001600020600b0160006101000a81548160ff021916908360ff16021790555080600260008563ffffffff1663ffffffff1681526020019081526020016000206006016001600281101515611dd257fe5b019080519060200190611de6929190614a9f565b5033600260008563ffffffff1663ffffffff1681526020019081526020016000206004016001600281101515611e1857fe5b0160006101000a81548173ffffffffffffffffffffffffffffffffffffffff021916908373ffffffffffffffffffffffffffffffffffffffff16021790555042600260008563ffffffff1663ffffffff16815260200190815260200160002060080181905550600260008463ffffffff1663ffffffff1681526020019081526020016000206004016000600281101515611eae57fe5b0160009054906101000a900473ffffffffffffffffffffffffffffffffffffffff1673ffffffffffffffffffffffffffffffffffffffff168363ffffffff167fefe144453900c4d0cd4aef4f468771772ebc548b1253de88ff1a1291b7a5785060405160405180910390a36000600260008563ffffffff1663ffffffff16815260200190815260200160002060000160009054906101000a900463ffffffff169050600180808054905003815481101515611f6557fe5b90600052602060002090600891828204019190066004029054906101000a900463ffffffff1660018263ffffffff16815481101515611fa057fe5b90600052602060002090600891828204019190066004026101000a81548163ffffffff021916908363ffffffff16021790555080600260008663ffffffff1663ffffffff16815260200190815260200160002060000160006101000a81548163ffffffff021916908363ffffffff16021790555060018054809190600190036120299190614b43565b5050505050565b600360009054906101000a900463ffffffff1663ffffffff168163ffffffff161015156120c5576040517f08c379a00000000000000000000000000000000000000000000000000000000081526004018080602001828103825260168152602001807f47616d6520696e64657820697320696e76616c69642e0000000000000000000081525060200191505060405180910390fd5b6000600260008363ffffffff1663ffffffff1681526020019081526020016000206003015411151561215f576040517f08c379a00000000000000000000000000000000000000000000000000000000081526004018080602001828103825260138152602001807f42657420616d6f756e74206973207a65726f2e0000000000000000000000000081525060200191505060405180910390fd5b6000600260008363ffffffff1663ffffffff16815260200190815260200160002060020160009054906101000a900460ff16905060008160ff16141561285f57600360049054906101000a900461ffff1661ffff16600260008463ffffffff1663ffffffff16815260200190815260200160002060080154420311151561224e576040517f08c379a00000000000000000000000000000000000000000000000000000000081526004018080602001828103825260108152602001807f54696d656f757420616c72656164792e0000000000000000000000000000000081525060200191505060405180910390fd5b3373ffffffffffffffffffffffffffffffffffffffff16600260008463ffffffff1663ffffffff168152602001908152602001600020600401600060028110151561229557fe5b0160009054906101000a900473ffffffffffffffffffffffffffffffffffffffff1673ffffffffffffffffffffffffffffffffffffffff16141561261f57600073ffffffffffffffffffffffffffffffffffffffff16600260008463ffffffff1663ffffffff168152602001908152602001600020600401600160028110151561231b57fe5b0160009054906101000a900473ffffffffffffffffffffffffffffffffffffffff1673ffffffffffffffffffffffffffffffffffffffff161415156123c8576040517f08c379a00000000000000000000000000000000000000000000000000000000081526004018080602001828103825260168152602001807f506c617965723120616c72656164792065786973742e0000000000000000000081525060200191505060405180910390fd5b6001600260008463ffffffff1663ffffffff16815260200190815260200160002060090160006002811015156123fa57fe5b602091828204019190066101000a81548160ff021916908315150217905550600a600260008463ffffffff1663ffffffff16815260200190815260200160002060020160006101000a81548160ff021916908360ff1602179055503373ffffffffffffffffffffffffffffffffffffffff166108fc600260008563ffffffff1663ffffffff168152602001908152602001600020600301549081150290604051600060405180830381858888f193505050501580156124bd573d6000803e3d6000fd5b506000600260008463ffffffff1663ffffffff16815260200190815260200160002060000160009054906101000a900463ffffffff16905060018080805490500381548110151561250a57fe5b90600052602060002090600891828204019190066004029054906101000a900463ffffffff1660018263ffffffff1681548110151561254557fe5b90600052602060002090600891828204019190066004026101000a81548163ffffffff021916908363ffffffff16021790555080600260008563ffffffff1663ffffffff16815260200190815260200160002060000160006101000a81548163ffffffff021916908363ffffffff16021790555060018054809190600190036125ce9190614b43565b503373ffffffffffffffffffffffffffffffffffffffff168363ffffffff167f429f8719638cba0a0c2c2f5abdaed73702d21228925bbda0ac0a575bbfed444b60405160405180910390a35061285a565b3373ffffffffffffffffffffffffffffffffffffffff16600260008463ffffffff1663ffffffff168152602001908152602001600020600401600160028110151561266657fe5b0160009054906101000a900473ffffffffffffffffffffffffffffffffffffffff1673ffffffffffffffffffffffffffffffffffffffff1614156127eb576001600260008463ffffffff1663ffffffff16815260200190815260200160002060090160016002811015156126d657fe5b602091828204019190066101000a81548160ff021916908315150217905550600c600260008463ffffffff1663ffffffff16815260200190815260200160002060020160006101000a81548160ff021916908360ff1602179055503373ffffffffffffffffffffffffffffffffffffffff166108fc60028060008663ffffffff1663ffffffff16815260200190815260200160002060030154029081150290604051600060405180830381858888f1935050505015801561279b573d6000803e3d6000fd5b503373ffffffffffffffffffffffffffffffffffffffff168263ffffffff167f429f8719638cba0a0c2c2f5abdaed73702d21228925bbda0ac0a575bbfed444b60405160405180910390a3612859565b6040517f08c379a000000000000000000000000000000000000000000000000000000000815260040180806020018281038252600e8152602001807f496e76616c696420616374696f6e00000000000000000000000000000000000081525060200191505060405180910390fd5b5b6138d6565b60018160ff161415612ba6573373ffffffffffffffffffffffffffffffffffffffff16600260008463ffffffff1663ffffffff16815260200190815260200160002060040160016002811015156128b257fe5b0160009054906101000a900473ffffffffffffffffffffffffffffffffffffffff1673ffffffffffffffffffffffffffffffffffffffff1614151561295f576040517f08c379a00000000000000000000000000000000000000000000000000000000081526004018080602001828103825260168152602001807f506c6179657231206973206e6f742053656e6465722e0000000000000000000081525060200191505060405180910390fd5b600360049054906101000a900461ffff1661ffff16600260008463ffffffff1663ffffffff168152602001908152602001600020600801544203111515612a0e576040517f08c379a00000000000000000000000000000000000000000000000000000000081526004018080602001828103825260158152602001807f47616d652074696d656f757420616c72656164792e000000000000000000000081525060200191505060405180910390fd5b6001600260008463ffffffff1663ffffffff1681526020019081526020016000206009016001600281101515612a4057fe5b602091828204019190066101000a81548160ff021916908315150217905550600c600260008463ffffffff1663ffffffff16815260200190815260200160002060020160006101000a81548160ff021916908360ff1602179055503373ffffffffffffffffffffffffffffffffffffffff166108fc60028060008663ffffffff1663ffffffff16815260200190815260200160002060030154029081150290604051600060405180830381858888f19350505050158015612b05573d6000803e3d6000fd5b50600260008363ffffffff1663ffffffff1681526020019081526020016000206004016000600281101515612b3657fe5b0160009054906101000a900473ffffffffffffffffffffffffffffffffffffffff1673ffffffffffffffffffffffffffffffffffffffff168263ffffffff167f429f8719638cba0a0c2c2f5abdaed73702d21228925bbda0ac0a575bbfed444b60405160405180910390a36138d5565b60028160ff161415612eed573373ffffffffffffffffffffffffffffffffffffffff16600260008463ffffffff1663ffffffff1681526020019081526020016000206004016000600281101515612bf957fe5b0160009054906101000a900473ffffffffffffffffffffffffffffffffffffffff1673ffffffffffffffffffffffffffffffffffffffff16141515612ca6576040517f08c379a00000000000000000000000000000000000000000000000000000000081526004018080602001828103825260168152602001807f506c6179657230206973206e6f742053656e6465722e0000000000000000000081525060200191505060405180910390fd5b600360049054906101000a900461ffff1661ffff16600260008463ffffffff1663ffffffff168152602001908152602001600020600801544203111515612d55576040517f08c379a00000000000000000000000000000000000000000000000000000000081526004018080602001828103825260158152602001807f47616d652074696d656f757420616c72656164792e000000000000000000000081525060200191505060405180910390fd5b6001600260008463ffffffff1663ffffffff1681526020019081526020016000206009016000600281101515612d8757fe5b602091828204019190066101000a81548160ff021916908315150217905550600b600260008463ffffffff1663ffffffff16815260200190815260200160002060020160006101000a81548160ff021916908360ff1602179055503373ffffffffffffffffffffffffffffffffffffffff166108fc60028060008663ffffffff1663ffffffff16815260200190815260200160002060030154029081150290604051600060405180830381858888f19350505050158015612e4c573d6000803e3d6000fd5b50600260008363ffffffff1663ffffffff1681526020019081526020016000206004016001600281101515612e7d57fe5b0160009054906101000a900473ffffffffffffffffffffffffffffffffffffffff1673ffffffffffffffffffffffffffffffffffffffff168263ffffffff167f429f8719638cba0a0c2c2f5abdaed73702d21228925bbda0ac0a575bbfed444b60405160405180910390a36138d4565b600a8160ff16141561336b573373ffffffffffffffffffffffffffffffffffffffff16600260008463ffffffff1663ffffffff1681526020019081526020016000206004016000600281101515612f4057fe5b0160009054906101000a900473ffffffffffffffffffffffffffffffffffffffff1673ffffffffffffffffffffffffffffffffffffffff1614156130f857600260008363ffffffff1663ffffffff1681526020019081526020016000206009016000600281101515612fae57fe5b602091828204019190069054906101000a900460ff16151515613039576040517f08c379a00000000000000000000000000000000000000000000000000000000081526004018080602001828103825260188152602001807f416d6f756e7420776974686472657720616c72656164792e000000000000000081525060200191505060405180910390fd5b6001600260008463ffffffff1663ffffffff168152602001908152602001600020600901600060028110151561306b57fe5b602091828204019190066101000a81548160ff0219169083151502179055503373ffffffffffffffffffffffffffffffffffffffff166108fc600260008563ffffffff1663ffffffff168152602001908152602001600020600301549081150290604051600060405180830381858888f193505050501580156130f2573d6000803e3d6000fd5b50613366565b3373ffffffffffffffffffffffffffffffffffffffff16600260008463ffffffff1663ffffffff168152602001908152602001600020600401600160028110151561313f57fe5b0160009054906101000a900473ffffffffffffffffffffffffffffffffffffffff1673ffffffffffffffffffffffffffffffffffffffff1614156132f757600260008363ffffffff1663ffffffff16815260200190815260200160002060090160016002811015156131ad57fe5b602091828204019190069054906101000a900460ff16151515613238576040517f08c379a00000000000000000000000000000000000000000000000000000000081526004018080602001828103825260178152602001807f416d6f757420776974686472617720616c72656164792e00000000000000000081525060200191505060405180910390fd5b6001600260008463ffffffff1663ffffffff168152602001908152602001600020600901600160028110151561326a57fe5b602091828204019190066101000a81548160ff0219169083151502179055503373ffffffffffffffffffffffffffffffffffffffff166108fc600260008563ffffffff1663ffffffff168152602001908152602001600020600301549081150290604051600060405180830381858888f193505050501580156132f1573d6000803e3d6000fd5b50613365565b6040517f08c379a000000000000000000000000000000000000000000000000000000000815260040180806020018281038252600f8152602001807f496e76616c696420416374696f6e2e000000000000000000000000000000000081525060200191505060405180910390fd5b5b6138d3565b600b8160ff1614156135e7573373ffffffffffffffffffffffffffffffffffffffff16600260008463ffffffff1663ffffffff16815260200190815260200160002060040160006002811015156133be57fe5b0160009054906101000a900473ffffffffffffffffffffffffffffffffffffffff1673ffffffffffffffffffffffffffffffffffffffff1614151561346b576040517f08c379a00000000000000000000000000000000000000000000000000000000081526004018080602001828103825260158152602001807f506c6179657230206973206e6f742053656e646572000000000000000000000081525060200191505060405180910390fd5b600260008363ffffffff1663ffffffff168152602001908152602001600020600901600060028110151561349b57fe5b602091828204019190069054906101000a900460ff16151515613526576040517f08c379a00000000000000000000000000000000000000000000000000000000081526004018080602001828103825260188152602001807f416d6f756e7420776974686472617720616c72656164792e000000000000000081525060200191505060405180910390fd5b6001600260008463ffffffff1663ffffffff168152602001908152602001600020600901600060028110151561355857fe5b602091828204019190066101000a81548160ff0219169083151502179055503373ffffffffffffffffffffffffffffffffffffffff166108fc60028060008663ffffffff1663ffffffff16815260200190815260200160002060030154029081150290604051600060405180830381858888f193505050501580156135e1573d6000803e3d6000fd5b506138d2565b600c8160ff161415613863573373ffffffffffffffffffffffffffffffffffffffff16600260008463ffffffff1663ffffffff168152602001908152602001600020600401600160028110151561363a57fe5b0160009054906101000a900473ffffffffffffffffffffffffffffffffffffffff1673ffffffffffffffffffffffffffffffffffffffff161415156136e7576040517f08c379a00000000000000000000000000000000000000000000000000000000081526004018080602001828103825260168152602001807f506c6179657231206973206e6f742053656e6465722e0000000000000000000081525060200191505060405180910390fd5b600260008363ffffffff1663ffffffff168152602001908152602001600020600901600160028110151561371757fe5b602091828204019190069054906101000a900460ff161515156137a2576040517f08c379a00000000000000000000000000000000000000000000000000000000081526004018080602001828103825260178152602001807f416d6f757420776974686472617720616c72656164792e00000000000000000081525060200191505060405180910390fd5b6001600260008463ffffffff1663ffffffff16815260200190815260200160002060090160016002811015156137d457fe5b602091828204019190066101000a81548160ff0219169083151502179055503373ffffffffffffffffffffffffffffffffffffffff166108fc60028060008663ffffffff1663ffffffff16815260200190815260200160002060030154029081150290604051600060405180830381858888f1935050505015801561385d573d6000803e3d6000fd5b506138d1565b6040517f08c379a000000000000000000000000000000000000000000000000000000000815260040180806020018281038252600e8152602001807f496e76616c696420416374696f6e00000000000000000000000000000000000081525060200191505060405180910390fd5b5b5b5b5b5b5050565b600360009054906101000a900463ffffffff1663ffffffff168263ffffffff1610151561396f576040517f08c379a00000000000000000000000000000000000000000000000000000000081526004018080602001828103825260168152602001807f47616d6520696e64657820697320696e76616c69642e0000000000000000000081525060200191505060405180910390fd5b60088160ff16111515156139eb576040517f08c379a00000000000000000000000000000000000000000000000000000000081526004018080602001828103825260148152602001807f43656c6c20636f756e74206d69736d617463682e00000000000000000000000081525060200191505060405180910390fd5b6000600260008463ffffffff1663ffffffff16815260200190815260200160002060010190506000818360ff16600981101515613a2457fe5b602091828204019190069054906101000a900460ff1660ff16141515613ab2576040517f08c379a00000000000000000000000000000000000000000000000000000000081526004018080602001828103825260148152602001807f43656c6c20617265206e6f7420656d706c74792e00000000000000000000000081525060200191505060405180910390fd5b6001600260008563ffffffff1663ffffffff16815260200190815260200160002060020160009054906101000a900460ff1660ff161415613cb4573373ffffffffffffffffffffffffffffffffffffffff16600260008563ffffffff1663ffffffff1681526020019081526020016000206004016000600281101515613b3457fe5b0160009054906101000a900473ffffffffffffffffffffffffffffffffffffffff1673ffffffffffffffffffffffffffffffffffffffff16141515613be1576040517f08c379a00000000000000000000000000000000000000000000000000000000081526004018080602001828103825260158152602001807f506c6179657231206973206e6f742053656e646572000000000000000000000081525060200191505060405180910390fd5b6001818360ff16600981101515613bf457fe5b602091828204019190066101000a81548160ff021916908360ff160217905550600260008463ffffffff1663ffffffff1681526020019081526020016000206004016001600281101515613c4457fe5b0160009054906101000a900473ffffffffffffffffffffffffffffffffffffffff1673ffffffffffffffffffffffffffffffffffffffff168363ffffffff167f7c1c0c6b1708045c68283431dcc9a3e573d5913b92a88cb614662851d4b67cfe60405160405180910390a3613f24565b60028060008563ffffffff1663ffffffff16815260200190815260200160002060020160009054906101000a900460ff1660ff161415613eb5573373ffffffffffffffffffffffffffffffffffffffff16600260008563ffffffff1663ffffffff1681526020019081526020016000206004016001600281101515613d3557fe5b0160009054906101000a900473ffffffffffffffffffffffffffffffffffffffff1673ffffffffffffffffffffffffffffffffffffffff16141515613de2576040517f08c379a00000000000000000000000000000000000000000000000000000000081526004018080602001828103825260168152602001807f506c6179657231206973206e6f742053656e6465722e0000000000000000000081525060200191505060405180910390fd5b6002818360ff16600981101515613df557fe5b602091828204019190066101000a81548160ff021916908360ff160217905550600260008463ffffffff1663ffffffff1681526020019081526020016000206004016000600281101515613e4557fe5b0160009054906101000a900473ffffffffffffffffffffffffffffffffffffffff1673ffffffffffffffffffffffffffffffffffffffff168363ffffffff167f7c1c0c6b1708045c68283431dcc9a3e573d5913b92a88cb614662851d4b67cfe60405160405180910390a3613f23565b6040517f08c379a000000000000000000000000000000000000000000000000000000000815260040180806020018281038252600f8152602001807f496e76616c696420616374696f6e2e000000000000000000000000000000000081525060200191505060405180910390fd5b5b42600260008563ffffffff1663ffffffff168152602001908152602001600020600801819055506000816002600981101515613f5c57fe5b602091828204019190069054906101000a900460ff16826001600981101515613f8157fe5b602091828204019190069054906101000a900460ff16836000600981101515613fa657fe5b602091828204019190069054906101000a900460ff16161660ff1614158061404257506000816005600981101515613fda57fe5b602091828204019190069054906101000a900460ff16826004600981101515613fff57fe5b602091828204019190069054906101000a900460ff1683600360098110151561402457fe5b602091828204019190069054906101000a900460ff16161660ff1614155b806140c15750600081600860098110151561405957fe5b602091828204019190069054906101000a900460ff1682600760098110151561407e57fe5b602091828204019190069054906101000a900460ff168360066009811015156140a357fe5b602091828204019190069054906101000a900460ff16161660ff1614155b80614140575060008160066009811015156140d857fe5b602091828204019190069054906101000a900460ff168260036009811015156140fd57fe5b602091828204019190069054906101000a900460ff1683600060098110151561412257fe5b602091828204019190069054906101000a900460ff16161660ff1614155b806141bf5750600081600760098110151561415757fe5b602091828204019190069054906101000a900460ff1682600460098110151561417c57fe5b602091828204019190069054906101000a900460ff168360016009811015156141a157fe5b602091828204019190069054906101000a900460ff16161660ff1614155b8061423e575060008160086009811015156141d657fe5b602091828204019190069054906101000a900460ff168260056009811015156141fb57fe5b602091828204019190069054906101000a900460ff1683600260098110151561422057fe5b602091828204019190069054906101000a900460ff16161660ff1614155b806142bd5750600081600860098110151561425557fe5b602091828204019190069054906101000a900460ff1682600460098110151561427a57fe5b602091828204019190069054906101000a900460ff1683600060098110151561429f57fe5b602091828204019190069054906101000a900460ff16161660ff1614155b8061433c575060008160066009811015156142d457fe5b602091828204019190069054906101000a900460ff168260046009811015156142f957fe5b602091828204019190069054906101000a900460ff1683600260098110151561431e57fe5b602091828204019190069054906101000a900460ff16161660ff1614155b156144e057808260ff1660098110151561435257fe5b602091828204019190069054906101000a900460ff16600a01600260008563ffffffff1663ffffffff16815260200190815260200160002060020160006101000a81548160ff021916908360ff160217905550600260008463ffffffff1663ffffffff16815260200190815260200160002060040160006002811015156143d557fe5b0160009054906101000a900473ffffffffffffffffffffffffffffffffffffffff1673ffffffffffffffffffffffffffffffffffffffff168363ffffffff167f429f8719638cba0a0c2c2f5abdaed73702d21228925bbda0ac0a575bbfed444b60405160405180910390a3600260008463ffffffff1663ffffffff168152602001908152602001600020600401600160028110151561447057fe5b0160009054906101000a900473ffffffffffffffffffffffffffffffffffffffff1673ffffffffffffffffffffffffffffffffffffffff168363ffffffff167f429f8719638cba0a0c2c2f5abdaed73702d21228925bbda0ac0a575bbfed444b60405160405180910390a361497e565b60008160006009811015156144f157fe5b602091828204019190069054906101000a900460ff1660ff16141580156145405750600081600160098110151561452457fe5b602091828204019190069054906101000a900460ff1660ff1614155b80156145745750600081600260098110151561455857fe5b602091828204019190069054906101000a900460ff1660ff1614155b80156145a85750600081600360098110151561458c57fe5b602091828204019190069054906101000a900460ff1660ff1614155b80156145dc575060008160046009811015156145c057fe5b602091828204019190069054906101000a900460ff1660ff1614155b8015614610575060008160056009811015156145f457fe5b602091828204019190069054906101000a900460ff1660ff1614155b80156146445750600081600660098110151561462857fe5b602091828204019190069054906101000a900460ff1660ff1614155b80156146785750600081600760098110151561465c57fe5b602091828204019190069054906101000a900460ff1660ff1614155b80156146ac5750600081600860098110151561469057fe5b602091828204019190069054906101000a900460ff1660ff1614155b1561482857600a600260008563ffffffff1663ffffffff16815260200190815260200160002060020160006101000a81548160ff021916908360ff160217905550600260008463ffffffff1663ffffffff168152602001908152602001600020600401600060028110151561471d57fe5b0160009054906101000a900473ffffffffffffffffffffffffffffffffffffffff1673ffffffffffffffffffffffffffffffffffffffff168363ffffffff167f429f8719638cba0a0c2c2f5abdaed73702d21228925bbda0ac0a575bbfed444b60405160405180910390a3600260008463ffffffff1663ffffffff16815260200190815260200160002060040160016002811015156147b857fe5b0160009054906101000a900473ffffffffffffffffffffffffffffffffffffffff1673ffffffffffffffffffffffffffffffffffffffff168363ffffffff167f429f8719638cba0a0c2c2f5abdaed73702d21228925bbda0ac0a575bbfed444b60405160405180910390a361497d565b6001818360ff1660098110151561483b57fe5b602091828204019190069054906101000a900460ff1660ff16141561489a5760028060008563ffffffff1663ffffffff16815260200190815260200160002060020160006101000a81548160ff021916908360ff16021790555061497c565b6002818360ff166009811015156148ad57fe5b602091828204019190069054906101000a900460ff1660ff16141561490d576001600260008563ffffffff1663ffffffff16815260200190815260200160002060020160006101000a81548160ff021916908360ff16021790555061497b565b6040517f08c379a000000000000000000000000000000000000000000000000000000000815260040180806020018281038252600f8152602001807f496e76616c696420616374696f6e2e000000000000000000000000000000000081525060200191505060405180910390fd5b5b5b5b505050565b600080600260008463ffffffff1663ffffffff16815260200190815260200160002060090160006002811015156149b657fe5b602091828204019190069054906101000a900460ff16600260008563ffffffff1663ffffffff16815260200190815260200160002060090160016002811015156149fc57fe5b602091828204019190069054906101000a900460ff1691509150915091565b60606001805480602002602001604051908101604052809291908181526020018280548015614a9557602002820191906000526020600020906000905b82829054906101000a900463ffffffff1663ffffffff1681526020019060040190602082600301049283019260010382029150808411614a585790505b5050505050905090565b828054600181600116156101000203166002900490600052602060002090601f016020900481019282601f10614ae057805160ff1916838001178555614b0e565b82800160010185558215614b0e579182015b82811115614b0d578251825591602001919060010190614af2565b5b509050614b1b9190614b7d565b5090565b61012060405190810160405280600990602082028038833980820191505090505090565b815481835581811115614b78576007016008900481600701600890048360005260206000209182019101614b779190614b7d565b5b505050565b614b9f91905b80821115614b9b576000816000905550600101614b83565b5090565b9056fea165627a7a72305820fc26eb5ea176e5116b31fd931d34a2fa56c0df0219d4c4b8cfea5b3eafb0131a0029",
  "source": "pragma solidity ^0.5.0;\n\nimport \"./LibString.sol\";\n\ncontract TicTacToe {\n\n  // DATA\n  struct Game {\n    uint32 openListIndex;   // position in openGames[]\n    uint8[9] cells;  // [123 / 456 / 789] containing [0 => nobody, 1 => X, 2 => O]\n    \n    // 0 => not started, 1 => player 1, 2 => player 2\n    // 10 => draw, 11 => player 1 wins, 12 => player 2 wins\n    uint8 status;\n\n    uint256 amount;  // amount of money each user has sent\n\n    address[2] players;\n    string[2] nicks;\n    uint lastTransaction; // timestamp => block number\n    bool[2] withdrawn;\n\n    bytes32 creatorHash;\n    uint8 guestRandomNumber;\n  }\n\n  address payable public owner;\n\n  uint32[] openGames; // list of active games' id's\n  mapping(uint32 => Game) gamesData; // data containers\n  uint32 nextGameIdx;\n  uint16 public timeout;\n\n  // EVENTS\n\n  event GameCreated(uint32 indexed gameIdx);\n  event GameAccepted(uint32 indexed gameIdx, address indexed opponent);\n  event GameStarted(uint32 indexed gameIdx, address indexed opponent);\n  event PositionMarked(uint32 indexed gameIdx, address indexed opponent);\n  event GameEnded(uint32 indexed gameIdx, address indexed opponent);\n\n  constructor(uint16 givenTimeout) public {\n    if(givenTimeout != 0) {\n      timeout = givenTimeout;\n    }\n    else {\n      timeout = 10 minutes;\n    }\n\n    owner = msg.sender;\n  }\n\n  function kill() external {\n    require(msg.sender == owner, \"Only the owner can kill this contract\");\n    selfdestruct(owner);\n  }\n\n  function contractWithdraw() internal {\n    require(msg.sender == owner, \"Only the owner can withdraw.\");\n\n    require(address(this).balance > 0, \"Contract balance is zero.\");\n\n    owner.transfer(address(this).balance);\n  }\n\n  // CALLABLE\n\n  function getOpenGames() public view returns (uint32[] memory){\n    return openGames;\n  }\n\n  function getGameInfo(uint32 gameIdx) public view returns (\n    uint8[9] memory cells,\n    uint8 status,\n    uint256 amount,\n    string memory nick1,\n    string memory nick2\n  ) {\n    return (\n      gamesData[gameIdx].cells,\n      gamesData[gameIdx].status,\n      gamesData[gameIdx].amount,\n      gamesData[gameIdx].nicks[0],\n      gamesData[gameIdx].nicks[1]\n    );\n  }\n\n  function getGameTimestamp(uint32 gameIdx) public view returns (uint lastTransaction) {\n    return (gamesData[gameIdx].lastTransaction);\n  }\n\n  function getGamePlayers(uint32 gameIdx) public view returns (address player1, address player2) {\n    return (\n      gamesData[gameIdx].players[0],\n      gamesData[gameIdx].players[1]\n    );\n  }\n\n  function getGameWithdrawals(uint32 gameIdx) public view returns (bool player1, bool player2) {\n    return (\n      gamesData[gameIdx].withdrawn[0],\n      gamesData[gameIdx].withdrawn[1]\n    );\n  }\n\n  // OPERATIONS\n\n  function createGame(bytes32 randomNumberHash, string memory nick) public payable returns (uint32 gameIdx) {\n    require(nextGameIdx + 1 > nextGameIdx, \"Next game index is not lattest.\");\n\n    gamesData[nextGameIdx].openListIndex = uint32(openGames.length);\n    gamesData[nextGameIdx].creatorHash = randomNumberHash;\n    gamesData[nextGameIdx].amount = msg.value;\n    gamesData[nextGameIdx].nicks[0] = nick;\n    gamesData[nextGameIdx].players[0] = msg.sender;\n    gamesData[nextGameIdx].lastTransaction = now;\n    openGames.push(nextGameIdx);\n\n    gameIdx = nextGameIdx;\n    emit GameCreated(nextGameIdx);\n    \n    nextGameIdx++;\n  }\n\n  function acceptGame(uint32 gameIdx, uint8 randomNumber, string memory nick) public payable {\n    require(gameIdx < nextGameIdx, \"Game index is not of correct count.\");\n    require(gamesData[gameIdx].players[0] != address(0), \"Players1 wallet is not valid.\");\n    require(msg.value == gamesData[gameIdx].amount, \"Player bet amount is not valid.\");\n    require(gamesData[gameIdx].players[1] == address(0), \"Player2 wallet already exist.\");\n    require(gamesData[gameIdx].status == 0, \"Game status is non-zero.\");\n\n    gamesData[gameIdx].guestRandomNumber = randomNumber;\n    gamesData[gameIdx].nicks[1] = nick;\n    gamesData[gameIdx].players[1] = msg.sender;\n    gamesData[gameIdx].lastTransaction = now;\n\n    emit GameAccepted(gameIdx, gamesData[gameIdx].players[0]);\n\n    // Remove from the available list (unordered)\n    uint32 idxToDelete = uint32(gamesData[gameIdx].openListIndex);\n    openGames[idxToDelete] = openGames[openGames.length - 1];\n    gamesData[gameIdx].openListIndex = idxToDelete;\n    openGames.length--;\n  }\n\n  function confirmGame(uint32 gameIdx, uint8 revealedRandomNumber, string memory revealedSalt) public {\n    require(gameIdx < nextGameIdx, \"Next game index is not valid.\");\n    require(gamesData[gameIdx].players[0] == msg.sender, \"Player1 wallet mismatch with sender wallet.\");\n    require(gamesData[gameIdx].players[1] != address(0), \"Player2 wallet is invalid.\");\n    require(gamesData[gameIdx].status == 0, \"Game status is non-zero.\");\n\n    bytes32 computedHash = saltedHash(revealedRandomNumber, revealedSalt);\n    if(computedHash != gamesData[gameIdx].creatorHash){\n      gamesData[gameIdx].status = 12;\n      emit GameEnded(gameIdx, msg.sender);\n      emit GameEnded(gameIdx, gamesData[gameIdx].players[1]);\n      return;\n    }\n\n    gamesData[gameIdx].lastTransaction = now;\n\n    // Define the starting player\n    if((revealedRandomNumber ^ gamesData[gameIdx].guestRandomNumber) & 0x01 == 0){\n      gamesData[gameIdx].status = 1;\n      emit GameStarted(gameIdx, gamesData[gameIdx].players[1]);\n    }\n    else {\n      gamesData[gameIdx].status = 2;\n      emit GameStarted(gameIdx, gamesData[gameIdx].players[1]);\n    }\n  }\n\n  function markPosition(uint32 gameIdx, uint8 cell) public {\n    require(gameIdx < nextGameIdx, \"Game index is invalid.\");\n    require(cell <= 8, \"Cell count mismatch.\");\n\n    uint8[9] storage cells = gamesData[gameIdx].cells;\n    require(cells[cell] == 0, \"Cell are not emplty.\");\n\n    if(gamesData[gameIdx].status == 1){\n      require(gamesData[gameIdx].players[0] == msg.sender, \"Player1 is not Sender\");\n\n      cells[cell] = 1;\n      emit PositionMarked(gameIdx, gamesData[gameIdx].players[1]);\n    }\n    else if(gamesData[gameIdx].status == 2){\n      require(gamesData[gameIdx].players[1] == msg.sender, \"Player1 is not Sender.\");\n      \n      cells[cell] = 2;\n      emit PositionMarked(gameIdx, gamesData[gameIdx].players[0]);\n    }\n    else {\n      revert(\"Invalid action.\");\n    }\n\n    gamesData[gameIdx].lastTransaction = now;\n\n\n    // Board indexes:\n    //    0 1 2\n    //    3 4 5\n    //    6 7 8\n\n    // Detect a winner:\n    // 0x01 & 0x01 & 0x01 != 0 => WIN\n    // 0x02 & 0x02 & 0x02 != 0 => WIN\n    \n    // 0x01 & 0x01 & 0x02 == 0 => Diverse row\n    // 0x01 & 0x02 & 0x02 == 0\n    // ...\n\n    if((cells[0] & cells [1] & cells [2] != 0x0) || (cells[3] & cells [4] & cells [5] != 0x0) ||\n    (cells[6] & cells [7] & cells [8] != 0x0) || (cells[0] & cells [3] & cells [6] != 0x0) ||\n    (cells[1] & cells [4] & cells [7] != 0x0) || (cells[2] & cells [5] & cells [8] != 0x0) ||\n    (cells[0] & cells [4] & cells [8] != 0x0) || (cells[2] & cells [4] & cells [6] != 0x0)) {\n      // winner\n      gamesData[gameIdx].status = 10 + cells[cell];  // 11 or 12\n      emit GameEnded(gameIdx, gamesData[gameIdx].players[0]);\n      emit GameEnded(gameIdx, gamesData[gameIdx].players[1]);\n    }\n    else if(cells[0] != 0x0 && cells[1] != 0x0 && cells[2] != 0x0 && cells[3] != 0x0 && cells[4] != 0x0 && cells[5] != 0x0 && cells[6] != 0x0 && cells[7] != 0x0 && cells[8] != 0x0) {\n      // draw\n      gamesData[gameIdx].status = 10;\n      emit GameEnded(gameIdx, gamesData[gameIdx].players[0]);\n      emit GameEnded(gameIdx, gamesData[gameIdx].players[1]);\n    }\n    else {\n      if(cells[cell] == 1){\n        gamesData[gameIdx].status = 2;\n      }\n      else if(cells[cell] == 2){\n        gamesData[gameIdx].status = 1;\n      }\n      else {\n        revert(\"Invalid action.\");\n      }\n    }\n  }\n\n  function withdraw(uint32 gameIdx) public {\n    require(gameIdx < nextGameIdx, \"Game index is invalid.\");\n    require(gamesData[gameIdx].amount > 0, \"Bet amount is zero.\");\n\n    uint8 status = gamesData[gameIdx].status;\n\n    if(status == 0) {\n      require((now - gamesData[gameIdx].lastTransaction) > timeout, \"Timeout already.\");\n      \n      // Player 1 cancels the non-accepted game\n      if(gamesData[gameIdx].players[0] == msg.sender) {\n        // checking !withdrawn[0] is redundant, status would not be 0\n        require(gamesData[gameIdx].players[1] == address(0), \"Player1 already exist.\");\n\n        gamesData[gameIdx].withdrawn[0] = true;\n        gamesData[gameIdx].status = 10; // consider it ended in draw\n        msg.sender.transfer(gamesData[gameIdx].amount);\n        \n        // The game was open\n        // Remove from the available list (unordered)\n        uint32 openListIdxToDelete = uint32(gamesData[gameIdx].openListIndex);\n        openGames[openListIdxToDelete] = openGames[openGames.length - 1];\n        gamesData[gameIdx].openListIndex = openListIdxToDelete;\n        openGames.length--;\n\n        emit GameEnded(gameIdx, msg.sender);\n      }\n      // Player 2 claims the non-confirmed game\n      else if(gamesData[gameIdx].players[1] == msg.sender) {\n        // checking !withdrawn[1] is redundant, status would not be 0\n\n        gamesData[gameIdx].withdrawn[1] = true;\n        gamesData[gameIdx].status = 12; // consider it won by P2\n        msg.sender.transfer(gamesData[gameIdx].amount * 2);\n    \n        // The game was not open: no need to clean it\n        // from the openGames[] list\n\n        emit GameEnded(gameIdx, msg.sender);\n      }\n      else {\n        revert(\"Invalid action\");\n      }\n    }\n    else if(status == 1) {\n      // player 2 claims\n      require(gamesData[gameIdx].players[1] == msg.sender, \"Player1 is not Sender.\");\n      require(now - gamesData[gameIdx].lastTransaction > timeout, \"Game timeout already.\");\n\n      gamesData[gameIdx].withdrawn[1] = true;\n      gamesData[gameIdx].status = 12;\n      msg.sender.transfer(gamesData[gameIdx].amount * 2);\n\n      emit GameEnded(gameIdx, gamesData[gameIdx].players[0]);\n    }\n    else if(status == 2){\n      // player 1 claims\n      require(gamesData[gameIdx].players[0] == msg.sender, \"Player0 is not Sender.\");\n      require(now - gamesData[gameIdx].lastTransaction > timeout, \"Game timeout already.\");\n\n      gamesData[gameIdx].withdrawn[0] = true;\n      gamesData[gameIdx].status = 11;\n      msg.sender.transfer(gamesData[gameIdx].amount * 2);\n\n      emit GameEnded(gameIdx, gamesData[gameIdx].players[1]);\n    }\n    else if(status == 10){\n      if(gamesData[gameIdx].players[0] == msg.sender){\n        require(!gamesData[gameIdx].withdrawn[0], \"Amount withdrew already.\");\n\n        gamesData[gameIdx].withdrawn[0] = true;\n        msg.sender.transfer(gamesData[gameIdx].amount);\n      }\n      else if(gamesData[gameIdx].players[1] == msg.sender){\n        require(!gamesData[gameIdx].withdrawn[1], \"Amout withdraw already.\");\n\n        gamesData[gameIdx].withdrawn[1] = true;\n        msg.sender.transfer(gamesData[gameIdx].amount);\n      }\n      else {\n        revert(\"Invalid Action.\");\n      }\n    }\n    else if(status == 11){\n      require(gamesData[gameIdx].players[0] == msg.sender, \"Player0 is not Sender\");\n      require(!gamesData[gameIdx].withdrawn[0], \"Amount withdraw already.\");\n\n      gamesData[gameIdx].withdrawn[0] = true;\n      msg.sender.transfer(gamesData[gameIdx].amount * 2);\n    }\n    else if(status == 12){\n      require(gamesData[gameIdx].players[1] == msg.sender, \"Player1 is not Sender.\");\n      require(!gamesData[gameIdx].withdrawn[1], \"Amout withdraw already.\");\n\n      gamesData[gameIdx].withdrawn[1] = true;\n      msg.sender.transfer(gamesData[gameIdx].amount * 2);\n    }\n    else {\n      revert(\"Invalid Action\");\n    }\n  }\n\n  // PUBLIC HELPER FUNCTIONS\n  function saltedHash(uint8 randomNumber, string memory salt) public pure returns (bytes32) {\n    return LibString.saltedHash(randomNumber, salt);\n  }\n\n  // DEFAULT\n  \n  function () external payable {\n    revert(\"Invalid Action.\");\n  }\n}\n",
  "sourcePath": "C:/xampp/htdocs/BLOCKCHAIN/tic-tac-toe/contracts/TicTacToe.sol",
  "compiler": {
    "name": "solc",
    "version": "0.5.1+commit.c8a2cb62.Emscripten.clang"
  },
  "schemaVersion": "3.0.16",
  "updatedAt": "2019-11-08T20:10:35.443Z",
  "devdoc": {
    "methods": {}
  },
  "userdoc": {
    "methods": {}
  }
}